:02000000FD2BD6
:10077800013083169100013083129F008030831668
:100788009F00080003308312A200A20BC92B83121A
:100798009F149F18D02BD12BCD2B1E08A100831698
:1007A8001E088312A0000800013083168500870107
:1007B800831285018701BC23C62383122108A60062
:1007C8002008A50002302602013003192502031C67
:1007D800EE2BEF2BF12B0514F22B05108230A40021
:1007E800DD30A300A30BF62BA40BF62BFB2BE02B81
:0607F80000288301D82B4C
:02400E00913FE0
:00000001FF
